:020000040800F2
:10000000600600206D010008D70400085D030008A9
:10001000D304000827020008FD09000800000000C2
:100020000000000000000000000000002906000899
:100030002B02000800000000D50500082907000871
:100040008701000887010008870100088701000870
:100050008701000887010008870100088701000860
:100060008701000887010008870100088701000850
:100070008701000887010008870100088701000840
:100080008701000887010008870100088701000830
:100090008701000887010008870100088701000820
:1000A0008701000887010008870100088701000810
:1000B0008701000887010008870100088701000800
:1000C00087010008870100088701000887010008F0
:1000D00087010008870100088701000887010008E0
:1000E00087010008870100088701000800F002F876
:1000F00000F02CF80AA090E8000C82448344AAF196
:100100000107DA4501D100F021F8AFF2090EBAE893
:100110000F0013F0010F18BFFB1A43F0010318473B
:100120009C090000AC0900000023002400250026E3
:10013000103A28BF78C1FBD8520728BF30C148BF4A
:100140000B6070471FB51FBD10B510BD00F031F832
:100150001146FFF7F7FF00F06BFC00F04FF803B417
:10016000FFF7F2FF03BC00F057F800000948804792
:1001700009480047FEE7FEE7FEE7FEE7FEE7FEE789
:10018000FEE7FEE7FEE7FEE704480549054A064BA1
:10019000704700002D070008ED00000860000020F7
:1001A0006006002060020020600200207047704757
:1001B0007047754600F02CF8AE4605006946534678
:1001C00020F00700854618B020B5FFF7DDFFBDE839
:1001D00020404FF000064FF000074FF000084FF0AE
:1001E000000B21F00701AC46ACE8C009ACE8C0093F
:1001F000ACE8C009ACE8C0098D46704710B50446AC
:10020000AFF300802046BDE81040FFF7A8BF000014
:10021000004870470000002001491820ABBEFEE7EF
:1002200026000200704700BFFEE770472DE9F0414D
:10023000024600250026002000230024002791F814
:1002400003C00CF00F0591F803C00CF0100CBCF1CA
:10025000000F03D091F802C04CEA050591F800C0E8
:10026000BCF1000F31D0146800202BE04FF0010CDE
:100270000CFA00F3B1F800C00CEA03069E4220D14C
:1002800083004FF00F0C0CFA03F7BC4305FA03FC94
:100290004CEA040491F803C0BCF1280F06D14FF0DA
:1002A000010C0CFA00FCC2F814C00AE091F803C07B
:1002B000BCF1480F05D14FF0010C0CFA00FCC2F85C
:1002C00010C0401C0828D1D31460B1F800C0BCF1A4
:1002D000FF0F34DD546800202EE000F1080C4FF0D1
:1002E000010808FA0CF3B1F800C00CEA03069E42BC
:1002F00021D183004FF00F0C0CFA03F7BC4305FA31
:1003000003FC4CEA040491F803C0BCF1280F05D1AA
:1003100000F1080C08FA0CF8C2F8148091F803C038
:10032000BCF1480F07D100F1080C4FF0010808FAA2
:100330000CF8C2F81080401C0828CED35460BDE8E9
:10034000F0810246002093680B400BB1012000E0D1
:1003500000207047416170470161704700BFFEE7B0
:100360000146704710B502210348FFF7F5FF04214D
:100370000148FFF7EFFF10BD0008014010B5042150
:100380000348FFF7E9FF02210148FFF7E3FF10BD33
:100390000008014010B5012000F048F968B90220BA
:1003A00000F044F948B9032000F040F928B90420CE
:1003B00000F03CF908B9002010BD022000F036F929
:1003C00008B10220F8E7032000F030F908B104205A
:1003D000F2E7012000F02AF928B1042000F026F904
:1003E00008B10F20E8E7012000F020F901280AD128
:1003F000022000F01BF9012805D1042000F016F9B5
:1004000008B16520D8E7032000F010F9012809D1D0
:10041000042000F00BF9012804D100F007F908B11D
:100420006620C9E700BFC7E710B504460F2C1AD0F5
:1004300005DC4CB1022C0CD0042C47D10EE0652C0D
:1004400017D0662C42D12AE06421084600F011FB47
:100450003CE05021642000F00CFB37E06421502088
:1004600000F007FB32E00021084600F002FB0F20FD
:1004700010BD6421484200F0FCFA00BF042000F0E7
:10048000D5F80028FAD01E21462000F0F2FA00BF6D
:10049000022000F0CBF80028FAD06520E8E76FF0E2
:1004A0006301642000F0E5FA00BF012000F0BEF80F
:1004B0000028FAD046211E2000F0DBFA00BF0320FE
:1004C00000F0B4F80028FAD06620D1E700BF002081
:1004D000CEE700BFFEE7704700B589B00121C80232
:1004E00000F07AF80121042000F076F818208DF849
:1004F00023004001ADF8200003208DF8220008A958
:100500002848FFF793FE10208DF823001E20ADF839
:10051000200003208DF8220008A92248FFF786FE5C
:10052000214800F04EF90020ADF81A00ADF8160091
:100530006320ADF818002320ADF8140000208DF8DA
:100540001C0005A9184800F007FA01A800F0F5F909
:100550006020ADF804000020ADF80C000120ADF8DB
:1005600006000020ADF80A0001A90F4800F030F99C
:1005700008210D4800F078F90020ADF80A0001A923
:10058000094800F07BF90821074800F0C9F901216A
:10059000054800F007F90121034800F0F7F809B019
:1005A00000BD000000080140002C014010B50446C9
:1005B0002146024800F0CBF910BD0000002C01409C
:1005C00010B504462146024800F0C3F910BD0000F2
:1005D000002C01407047000029B1064A926902438D
:1005E000044B9A6104E0034A92698243014B9A6189
:1005F000704700000010024010B508210348FFF7C3
:10060000ABFE10210148FFF7A5FE10BD0008014018
:1006100010B510210348FFF79FFE08210148FFF79E
:1006200099FE10BD000801407047000010B5044657
:10063000A1B20248FFF785FE10BD0000000C01408A
:1006400010B500F001F810BD0CB50020019000902D
:100650003348006840F480303149086000BF3048BA
:10066000006800F4003000900198401C0190009850
:1006700018B90198B0F5A06FF1D12948006800F4CD
:10068000003010B10120009001E00020009000989F
:10069000012843D12348006840F010002149086038
:1006A0000846006820F0030008600846006840F033
:1006B000020008601A4840681949486008464068C6
:1006C00048600846406840F48060486008464068DA
:1006D00020F47C1048600846406840F4E810486008
:1006E0000846006840F08070086000BF0C48006851
:1006F00000F000700028F9D00948406820F003009D
:10070000074948600846406840F00200486000BF62
:100710000348406800F00C000828F9D10CBD000027
:1007200000100240002002407047000010B513483E
:10073000006840F00100114908600846406810490F
:1007400008400E494860084600680E4908400B49B9
:1007500008600846006820F4802008600846406869
:1007600020F4FE0048604FF41F008860FFF768FF28
:100770004FF000600449086010BD00000010024006
:100780000000FFF8FFFFF6FE08ED00E021B102884F
:1007900042F00102028004E002884FF6FE731A4024
:1007A0000280704731B1B0F8442042F40042A0F812
:1007B000442005E0B0F84420C2F30E02A0F8442023
:1007C000704701894FF6F8721140018170470000AF
:1007D00070B5002400220023058C4FF6FE763540CC
:1007E0000584028C8388048B4FF68F752C40B51ED0
:1007F0002C400D882C43751E2A400D892A434D88B4
:100800002A43144DA8420BD0134DA84208D0134DD3
:10081000A84205D0124DA84202D0124DA84213D1D1
:100820004FF6F7752A404D892A434FF6FB752A404B
:100830008D882A434FF6FF652B404FF6FF552B401E
:100840008D892B43CD892B4383800483CD88858676
:10085000028470BD002C0140003401400040014082
:1008600000440140004801400A460021018B4FF638
:10087000F7731940114301837047000070B50024DD
:1008800000220023058C4FF6EF7635400584028C5C
:100890008388048B48F6FF752C404FF6FF452C40AB
:1008A0000D884FF6FF7606EA05252C434FF6DF75D7
:1008B0002A400D8906EA05152A434D8806EA0515E2
:1008C0002A43154DA84202D0144DA8421DD14FF61F
:1008D0007F752A404D894FF6FF7606EA05152A43B3
:1008E0004FF6BF752A408D8806EA05152A434FF654
:1008F000FF352B404FF2FF752B408D8906EA8505A9
:100900002B43CD8906EA85052B4383800483CD885C
:100910000587028470BD0000002C014000340140B6
:100920000A460021018B4FF2FF7319404FF6FF7307
:1009300003EA0223194301837047002101804180AB
:100940008180C180018141818181C181704781861F
:100950007047018770470000002202881D4B9842B3
:100960000ED01D4B98420BD0B0F1804F08D01B4BDE
:10097000984205D01A4B984202D01A4B984204D1A3
:100980004FF68F731A404B881A43174B984207D083
:10099000164B984204D04FF6FF431A40CB881A43B7
:1009A00002808B8883850B8803850A4B98420BD085
:1009B000094B984208D00E4B984205D00D4B9842F7
:1009C00002D00D4B984201D10B7A0386012383821A
:1009D00070470000002C014000340140000400403A
:1009E00000080040000C00400010004000140040CF
:1009F00000400140004401400048014000BFFEE7C4
:100A000008B5FFF769FD01210420FFF7E5FD0F2080
:100A1000ADF8000028208DF8030003208DF80200B7
:100A200069460248FFF702FC08BD0000000C0140C7
:100A300010B5FFF7E5FF00240EE0FFF7ABFC04461E
:100A4000FFF7A8FC0F2804D10021084600F011F898
:100A500003E02046FFF7E8FCEFE700BF00BF0121FD
:100A60000846FFF77DFC0021084600F002F8002050
:100A700010BD2DE9F04106460F4674427D42002C20
:100A800005DBFFF76FFCA0B2FFF790FD05E0FFF775
:100A900075FC614288B2FFF789FD002D05DBFFF789
:100AA000ABFDA8B2FFF78CFD05E0FFF7B1FD694291
:100AB00088B2FFF785FDBDE8F0810000CC0A000890
:0C0AC00000000020600600002801000873
:04000005080000ED02
:00000001FF
